:100000000C94C4190C94EC190C94EC190C94EC1984
:100010000C94EC190C94EC190C94EC190C94EC194C
:100020000C94EC190C94EC190C94C1210C94302212
:100030000C94EC190C94EC190C94EC190C94EC192C
:100040000C94EC190C94EC190C94EC190C94EC191C
:100050000C94EC190C94EC190C94EC190C9462248B
:100060000C94EC190C94EC190C94EC190C94EC19FC
:100070000C94EC190C94EC190C94EC190C94EC19EC
:100080000C94AC240C94EC190C94EC190C94EC1911
:100090000C94EC190C94EC190C94EC190C94EC19CC
:1000A0000C94EC190C94EC190C94EC191020000031
:1000B0000000000000000000000000000000000040
:1000C0000000000000000000000000000000000030
:1000D0000000000000906000000000000000000030
:1000E000000038F8F85BAEF8F83800000000101097
:1000F000FF017D7D7D7D656D6D657D7D7D7D01FF74
:10010000FF80BFBFBFBFB9BBBBB9BFBFBFBF80FF11
:10011000101000000000FFFFFFFE7C7C7830000024
:10012000000000000000090D0D0C0F0C080808006D
:100130000000101080C0E0E0E0E0E0E0E0E0E0E09F
:10014000E0E0E060FF077F070707070707070707EB
:10015000FF03003F1010000060F8FEFFFFFFFFFEEE
:10016000FCF86000000003060C0C8E4E2FFF2F4E93
:100170008E0C0C0603001020F0F0E0C080000000A0
:10018000F020381C0C000000070E1E1D0F1E383812
:10019000E4030000E020F0000C181C38306040FF41
:1001A0001110180F0E0701000000000038F8F8F9D0
:1001B000FFFAF9380000000010101FF913173DD3A3
:1001C0009579111111917915957F000F71828241F6
:1001D000231C38448380403807001010FF0107E5D6
:1001E000EDF9E1FDE701FF82422C14F81F101C1508
:1001F0001711111111101F28654281FF020300051C
:1002000001000900010F0100100003130200170094
:10021000061A01001E04012101002500002C020025
:100220002C06003102003305003601003A030003BA
:1002300001000700010B02000F000313030012016D
:10024000001705001902001D04002200002601000D
:100250002606002702002A03002C02002E0004318B
:100260000100340001000100010000050600080340
:10027000000B00030D020010050012010013040121
:100280001602001606001801001B00011E050010D2
:100290000800003038362A26322A261A0E060000B8
:1002A0000010081010080804040C142000080404AE
:1002B00002000010080004060C0C0C0C0C0C0C0CBA
:1002C0000C0C06040080400000000000F008080844
:1002D00008100000F008080808F00000F8604080EE
:1002E00080F80000080808F80808080000F8888866
:1002F0008870000000F008080808F00000F800000E
:10030000000000003048484888100000000000004D
:1003100000000000000000000000000000000010CD
:1003200008088848300000000000806018000010B5
:1003300008088848300000000000000000000000AD
:10034000000000000000004040404040434444445E
:10035000444240404344444444434040474040407A
:100360004147404040404047404040404047404077
:100370004142444040434444444443404047444451
:100380004444404042444444424140404040404054
:100390004040404040404040404040404040404459
:1003A000464544444440404040464140404040442B
:1003B0004645444444404040404040404040404026
:1003C000404040404040400000000000F84848489D
:1003D00048300080E0908890E0800000F800000045
:1003E0000000F800003048888810000000F84848F5
:1003F000080000000000F8B818A8B8B8B8F8000065
:10040000000000000000000000000000000080E08C
:10041000908890E0800808F80808000808F80808A4
:100420000080E0908890E08000F008080808000054
:10043000F840A0100800000000F878787878583864
:1004400078F8000000000000000000000700000035
:100450000000000700000000000700000102040483
:100460000402010000020404040300000007040465
:100470000400000000000707070607070707000041
:100480000000000000000000000000000000070065
:1004900000000000070000070000000000070060E7
:1004A000C0E7E0A0C0C0800700034484040400004B
:1004B0000780000304000000000F0F0F0F0F0D0E48
:1004C0000F0F00000000000000000000FF8080808F
:1004D00000007E818181817E0000FF06081060FFA0
:1004E00000007E81819191F30000000000C0C0C037
:1004F000C040C0C0C0C0000000008000000000C0BC
:10050000C0C04040C0C0C0000000000000000000AB
:1005100000000000000000000000000000000000DB
:100520008000810303010307E73C028180F8F8772C
:10053000793F000000000000000000000000000003
:10054000000000000000000000000000000010108B
:10055000F0101000F00000000000F000F01020C0CB
:100560002010F000F090909090600000003F3F3D20
:100570003E203E3D3F3F000002020F020200003FCE
:100580003F203B3B203F3F000000000000000000F8
:10059000000000000000000000000000000000005B
:1005A00003030707060C0C083FE14121010000008E
:1005B000000000000000008080B9E680800000009C
:1005C000000000000000008080808080848888888F
:1005D0008780808083848888888483808F808080DF
:1005E00080808F808F8080808080808080808080ED
:1005F00080808080808080808080808080808080FB
:1006000080808080808080808080808080808080EA
:1006100080808080808080808080808080808080DA
:100620008080808080838F8F8F8F8F8F838080806A
:1006300080808080808080838F858A8F8380808087
:1006400080808080808080FFFFFFFFFFFFFFFFFF33
:10065000FFFFFFFFFFFFFFFFFFFFFFFFFFFFFFFFAA
:10066000FFFFFFFFFFFFFFFFFFFFFFFFFFFFFFFF9A
:10067000FFFFFFFFFFFFFFFF80F6F6F9FF80FAC2E2
:10068000BDFF80B6B6FFBDBAB6CEFFBDBAB6CEFFCF
:10069000FF80BEAAAA9480FFFFFFFFFFFFFFFFFFBE
:1006A000FFFFFFFFFFFFFFFFFFFFFFFFFFFFFFFF5A
:1006B000FFFFFFFFFFFFFFFFFFFFFFFFFFFFFFFF4A
:1006C000FFFFFFFFFFFFFF80400000000000000071
:1006D000F008080808100000F008080808F00000FA
:1006E000F860408080F80000080808F80808080052
:1006F00000F888888870000000F008080808F000FA
:1007000000F8000000000000304848488810000051
:1007100000000000000000000000000000000000D9
:10072000002010F8000000000000008060180000A9
:100730001008088848300000000000000000000099
:1007400000000000000000000040404040404040E9
:10075000434444444442404043444444444340406E
:100760004740404041474040404040474040404073
:100770004047404041424440404344444444434055
:100780004047444444444040424444444241404041
:100790004040404040404040404040404040404059
:1007A000404444474444404040404641404040402B
:1007B000444645444444404040404040404040401E
:1007C00040404040404040404000000000000000E9
:1007D000304888881000000808F808080000080859
:1007E000F808080000000000000000000000000001
:1007F00000000000F8F878F808F878F8F800000031
:1008000000000000000000000000000000000000E8
:100810000000F848484848300000F8484808000000
:10082000F848C8300000F840A010080000000000A0
:10083000000000000000F8F818686818F8F80000D8
:1008400000000000000000000000000000000000A8
:100850000204040403000004040704040000000070
:100860000700000000000000000000000000000081
:10087000000000000707070604060707070000003E
:100880000000000000000000000000000000000068
:10089000000007000000000000000704040400003E
:1008A000070003040000070000030400000000002C
:1008B0000000000000000707040707040707000006
:1008C0000000000000000000000000000000000028
:1008D0000000808080808000800000000000800098
:1008E0008080000000808000808080808000000088
:1008F0000000000080808080808080808000000078
:1009000000000000000000000000000000000000E7
:1009100000008080000000808000008080808000D7
:1009200000800000000080000080000000000080C7
:1009300000000000000080808080808080800000B7
:1009400000000000000000000000000000000000A7
:10095000204040403F0000001F20404040201F003A
:100960007F00010601007F007F04040404030000EF
:10097000000000007F7F7B7D407D7B7F7F0000004B
:100980000000000000000000000000000000000067
:1009900000007F00010601007F00007F444440000A
:1009A000007F060408187F00001F20404040201FE1
:1009B0000000000000007F7F404A4A657F7F000002
:1009C00000000000000000000080808080808080A7
:1009D0008080808080808080808080808080808017
:1009E0008080808080808080808080808080808007
:1009F00080808080808080808080808080808080F7
:100A000080808080808080808080808080808080E6
:100A100080808080808080808080808080808080D6
:100A200080808080808080808080808080808080C6
:100A300080808080808080808080808080808080B6
:100A4000808080808080808080FFFFFFFFFFFFFF2D
:100A5000FFFFFFFFFFFFFFFFFFFFFFFFFFFFFFFFA6
:100A6000FFFFFFFFFFFFFFFFFFFFFFFFFFFFFFFF96
:100A7000FFFFFFFFFFFFFFFFFFFFFFFFFFFF80F60E
:100A8000F6F9FF80FAC2BDFF80B6B6FFBDBAB6CE9A
:100A9000FFBDBAB6CEFFFF80BEAAAA9480FFFFFFBB
:100AA000FFFFFFFFFFFFFFFFFFFFFFFFFFFFFFFF56
:100AB000FFFFFFFFFFFFFFFFFFFFFFFFFFFFFFFF46
:100AC000FFFFFFFFFFFFFFFFFF8040FFFFFFFFFF74
:100AD000FFFFFFFFFFFFFFFFFFFFFFFFFFFFFFFF26
:100AE000FFFFFFFFFFFFFFFFFFFFFFFFFFFFFFFF16
:100AF000FFFFFFFFFFFFFFFFFFFFFFFFFFFFFFFF06
:100B0000FF1FC7F3FBFDFDFDFDFDFCFDFDF9F1F54C
:100B1000E18707DF4378FFFFFFFFFFFFFFFFFFFFD6
:100B2000FFFFFFFFFFFFFFFFFFFFFFFFFFFFFFFFD5
:100B3000FFFFFFFFFFFFFFFFFFFFFFFFFFFFFFFFC5
:100B4000FFFFFFFFFFFFFFFFFFFFFFFFFFFFFFFFB5
:100B5000FFFFFFFFFFFFFFFFFFFFFFFFFFFFFFFFA5
:100B6000FFFFFFFFFFFFFFFFFFFFFFFFFFFFFFFF95
:100B7000FFFFFFFFFFFFFFFFFFFFFFFFFFFFFFFF85
:100B8000FFF803FFFFFFBF3F7F7FFF3FFFFFFFFF38
:100B9000FF0FF0FFC01EFFFFFFFFFFFFFFFFFFFF84
:100BA000FFFFFFFFFFFFFFFFFFFFFFFFFFFFFFFF55
:100BB000FFFFFFFFFFFFFFFFFFFFFFFFFFFFFFFF45
:100BC000FFFFFFFFFFFFFFFFFFFFFFFFFFFFFFFF35
:100BD000FFFFFFFFFFFFFFFFFFFFFFFFFFFFFFFF25
:100BE000FFFFFFFFFFFFFFFFFFFFFFFFFFFFFFFF15
:100BF000FFFFFFFFFFFFFFFFFFFFFFFFFFFFFFFF05
:100C0000FFFFE08F7FFCF1F3E6E4CF9E39F7FFFFB3
:100C1000E3EAD9CFCFD0BF7FFFFFFFFFFFFFFFFF8A
:100C2000FFFFFFFFFFFFFFFFFFFFFFFFFFFFFFFFD4
:100C3000FFFFFFFFFFFFFFFFFFFFFFFFFFFFFFFFC4
:100C4000FFFFFFFFFFFFFFFFFFFFFFFFFFFFFFFFB4
:100C5000FFFFFFFFFFFFFFFFFFFFFFFFFFFFFFFFA4
:100C6000FFFFFFFFFFFFFFFFFFFFFFFFFF7F7F7F14
:100C70007F7F7F7F7F7F7F7F7F7F7F7F7F7F7F7F84
:100C80007F7F7F7F7E7E013B676F5F3F3F7FFFFF00
:100C9000FFFFFFFFFFFFFFFFFEFEFEFDF7EFE76B2D
:100CA0006B6B2BEBE3AF6F8F3FFFFFFFFFFFFFFF90
:100CB000FFFFFFFFFFFFFFFFFFFFFFFFFFFFFFFF44
:100CC000FFFFFFFFFFFFFFFFFFFFFFFFFFFFFFFF34
:100CD000FFFFFFFFFFFFFFFFFFFFFFFFFFFFFFFF24
:100CE000FFFFFFFFFFFFFFFFFFFFFFFFFF00000011
:100CF00000000000000000000000000000000000F4
:100D00000000000002020202020202A854AA008EA1
:100D10000E0E2D2D0D01FDFBFBFBFBFBF3CFDD9D2F
:100D20009D7F278F9DE9E3F9FCFFFFFFFFFFFFFF9A
:100D3000FFFFFFFFFFFFFFFFFFFFFFFFFFFFFFFFC3
:100D4000FFFFFFFFFFFFFFFFFFFFFF7F7F7F7F7F33
:100D50007F7F7F7F7F7F7F7F7F7F7F7F7F7F7F7FA3
:100D60007F7F7F7F7F7F7F7F7F7F7F7F7F00000010
:100D70000000000000000000000000000000000073
:100D80000000000000000000000000AA55AA007F3B
:100D90000000000000007F7F7F7F7FFF7F3F3F3F9D
:100DA0003F7FFF7F7F7F7F7F7F7F7F7F7F7F7F7F13
:100DB0007F7F7F7F7F7F7F7F7F7F7F7F7F7F7F7F43
:100DC0007F7F7F7F7F7F7F7F7F7F7FFFFFFFFFFFB3
:100DD000FFFFFFFFFFFFFFFFFFFFFFFFFFFFFFFB27
:100DE000C3CB9BBB737B7B737B7B737B7B40404024
:100DF0004040404040404040404000000000000073
:100E0000C0C0C0C0C0C0C0C0C0C0C0C2C5CAC0FF92
:100E1000FF1F1F0F0703030101010101020202026C
:100E200002AA5107FFFFFFFFFFFFFFFFFFFFFFFFCA
:100E3000FFFFFFFFFFFFFFFFFFFFFFFFFFFFFFFFC2
:100E4000FFFFFFFFFFFFFFFFFFFFFFFFFFFFFFFFB2
:100E5000FFFFFFFFFFFFFFFFFFFFFFFFFFFFFFFFA2
:100E6000FFFFFFFFFFFFFFFFFFFFFFFFFFFFFFFF92
:100E7000FFFFFFFFFFFBFBF9F9F9F8F8F8F8F8F8C6
:100E8000F9F9F9F9FBFBFFFFFFFFFFFFFFFFFFFF92
:100E9000FFFEFEFEFEFEFEFEFEFEFEFEFEFEFEFE71
:100EA000FEFEFEFEFFFFFFFFFFFFFFFFFFFFFFFF56
:100EB000FFFFFFFFFFFFFFFFFFFFFFFFFFFFFFFF42
:100EC000FFFFFFFFFFFFFFFFFFFFFF8040FFFFFF70
:100ED000FFFFFFFFFFFFFFFF3FCFEFF7F3FDFDFD3C
:100EE000FDFCFBF7EFEFDF5F5B5B5B5B5FDFEFEF73
:100EF000F7FBFCFDFDFDFDFDF9F7E79F3FFFFFFF61
:100F0000FFFFFFFFFFFFFFFFFFFFFFFFFFFFFFFFF1
:100F1000FFFFFFFFFFFFFFFFFFFFFFFFFFFFFFFFE1
:100F2000FFFFFFFFFFFFFFFFFFFFFFFFFFFFFFFFD1
:100F3000FFFFFFFFFFFFFFFFFFFFFFFFFFFFFFFFC1
:100F4000FFFFFFFFFFFFFFFFFFFFFFFFFFFFFFFFB1
:100F5000FFFFFFFFFFFFFFFF00FFFFFFFFFFFFFFA0
:100F6000FFFFFFFFFFFFFFFE1C00001CFEFFFFFF57
:100F7000FFFFFFFFFFFFFFFFFFFFFFFF00FFFFFF80
:100F8000FFFFFFFFFFFFFFFFFFFFFFFFFFFFFFFF71
:100F9000FFFFFFFFFFFFFFFFFFFFFFFFFFFFFFFF61
:100FA000FFFFFFFFFFFFFFFFFFFFFFFFFFFFFFFF51
:100FB000FFFFFFFFFFFFFFFFFFFFFFFFFFFFFFFF41
:100FC000FFFFFFFFFFFFFFFFFFFFFFFFFFFFFFFF31
:100FD000FFFFFFFFFFFFFFFF00FFFFFFFFFFFFFF20
:100FE0000FFFFFFFFFFFFF3F000000003FFFFFFF7D
:100FF000FFFFFFFF0FFFFFFFFFFFFFFF00FFFFFFF0
:10100000FFFFFFFFFFFFFFFFFFFFFFFFFFFFFFFFF0
:10101000FFFFFFFFFFFFFFFFFFFFFFFFFFFFFFFFE0
:10102000FFFFFFFFFFFFFFFFFFFFFFFFFFFFFFFFD0
:10103000FFFFFFFFFFFFFFFFFFFFFFFFFFFFFFFFC0
:10104000FFFFFFFFFFFFFFFFFFFFFFFFFFFFFFFFB0
:10105000FFFFFFFFFFFFFFFF00FFFFFFFFFFFFFF9F
:1010600002FFFFFFFFFFFF000000000000FFFF7F07
:101070007F7F7F7F007F7F7F7F7F7F7F007F7F7F7E
:101080007F7F7F7F7F7F7F7F7F7F7F7F7F7F7F7F70
:101090007FFFFFFFFFFFFFFFFFFFFFFFFFFFFFFFE0
:1010A000FFFFFFFFFFFFFFFFFFFFFFFFFFFFFFFF50
:1010B000FFFFFFFFFFFFFFFFFFFFFFFFFFFFFFFF40
:1010C000FFFFFFFFFFFFFFFFFFFFFFFFFFFFFFFF30
:1010D000FFFFFFFFFFFFFFFF00EFEFEFEFAFEFEFCF
:1010E000004F4F4F4F4F0F0FEEACACAEEF0F4F0016
:1010F00000000000000000000000000000000000F0
:1011000000000000000002020202020202A854AA2B
:1011100000FFFFFFFFFFFFFFFFFFFFFFFFFFFFFFDE
:10112000FFFFFFFFFFFFFFFFFFFFFFFFFFFFFFFFCF
:10113000FFFFFFFFFFFFFFFFFFFFFFFFFFFFFFFFBF
:10114000FFFFFFFFFFFFFFFFFFFFFFFFFF7F7F7F2F
:101150007F7F7F7F7F7F7F7F06787E666E7E3E46C5
:10116000000000000000000000000000000000007F
:10117000000000000000000000000000000000006F
:1011800000000000000000000000000000AA55AAB6
:10119000007F7F7F7F7F7F7F7F7F7F7F7FFF7F3F9E
:1011A0003F3F3F7FFF7F7F7F7F7F7F7F7F7F7F7F8F
:1011B0007F7F7F7F7F7F7F7F7F7F7F7F7F7F7F7F3F
:1011C0007F7F7F7F7F7F7F7F7F7F7F7F7FFFFFFFAF
:1011D000FFFFFFFFFFFFFFFFFFFFFFFFFFFFFFFF1F
:1011E000FFFBC3CB9BBB737B7B737B7B737B7B40A6
:1011F00040404040404040404040404000000000EF
:101200000000C0C0C0C0C0C0C0C0C0C0C0C2C5CA4D
:10121000C0FFFF1F1F0F07030301010101010202AD
:10122000020202AA5107FFFFFFFFFFFFFFFFFFFFC0
:10123000FFFFFFFFFFFFFFFFFFFFFFFFFFFFFFFFBE
:10124000FFFFFFFFFFFFFFFFFFFFFFFFFFFFFFFFAE
:10125000FFFFFFFFFFFFFFFFFFFFFFFFFFFFFFFF9E
:10126000FFFFFFFFFFFFFFFFFFFFFFFFFFFFFFFF8E
:10127000FFFFFFFFFFFFFFFBFBF9F9F9F8F8F8F8B4
:10128000F8F8F9F9F9F9FBFBFFFFFFFFFFFFFFFF9C
:10129000FFFFFFFEFEFEFEFEFEFEFEFEFEFEFEFE6B
:1012A000FEFEFEFEFEFEFFFFFFFFFFFFFFFFFFFF54
:1012B000FFFFFFFFFFFFFFFFFFFFFFFFFFFFFFFF3E
:1012C000FFFFFFFFFFFFFFFFFFFFFFFFFF8040FF6C
:1012D000FFFFFFFFFFFFFFFFFFFFFFFFFFFFFFFF1E
:1012E000FFFFFFFFFFFFFFFFFFFFFFFFFFFFFFFF0E
:1012F000FFFFFFFFFFFFFFFFFFFFFFFFFFFFFFFFFE
:10130000FFFFFFFFFFFFFFFFFFFFFFFFFFFFFFFFED
:10131000FFFFFFFFFFFFFFFFFFFFFFFFFFFFFFDFFD
:101320007FAF550BF5F3F1F7F53ABEBFBFBF8FAFF7
:10133000A7B3830F373B0D339F4F778FBDD8CEF9BF
:10134000C73F3FBF1FFF7F0FE309E3FFFFFFFFFF23
:10135000FFFFFFFFFFFFFFFFFFFFFFFFFFFFFFFF9D
:10136000FFFFFFFF7F3F1F1F1F1F1F0F0F0F0F0FDD
:101370001F1F1F3F3F7FFFFFFFFFFFFFFFFFFFFF1D
:10138000FFFFFFFFFFFFFFFFFFFFFFFFFFFFFFFF6D
:10139000FFFFFFFFFFFFFFFFFFFFFF57BE6B5F97E2
:1013A000D9E2F1FCFFFFFFFFFF00FFFFFFEFFFFFB0
:1013B000FF0FE7F7FFBFBFBCBCB0B7B7C7838184DF
:1013C0000A081E1F44F1FC7FBF0CE1FFFFFFFFFF77
:1013D000FFFFFFFFFFFFFFFFFFFFFFFFFFFFFFFF1D
:1013E000FFFFFF07F000B82CACAE8C3CB83828A843
:1013F000A880209000F007FF81C103474F47D7D74F
:1014000007FFFFFFFFFFFFFFFFFFFFFFFFFFFFFFE4
:10141000FFFFFFFFFFFFFFFFFF7FFFFFEA95304F5A
:101420009F3F3FFFFFFFFFFFFF007F7F7F7E7F7FAC
:101430007F7E7C7D436E427E42545D7F435F7F436F
:101440006B627E7C707100E6F1FEFFFFFFFF7FFFA5
:10145000FFFFFFFFFFFFFFFFFFFF1FEFE7F3FDFDB4
:10146000FDFDFDFCFCF0F7EEDEDEBEB7B7B7B6BEA5
:10147000DE5E6E73787C7C050107004565657771DB
:101480007C037F7F7F7F7F7F7F7F7F7F7F7F7F7FEB
:101490007F7F7FFFFFFFFFFFFFFFFDFEFD6AF7F588
:1014A000AA6DDAA851833FFB7B7B7B7B7B7B7B5BDD
:1014B0004B4B4B4B4B404040404B0B8BDBCBEB6BD8
:1014C0006B6B6B6B0B1B7B7B7B7B7B7BFF07F0FF73
:1014D000FFFFFFFFFFFFFFFFFFFF00FFFFFFFFFF1B
:1014E000FFFFFFFFFFFFFFFFFFFFFC18000018FCDE
:1014F000FF000000000000000000000000000000ED
:10150000000000000000000002020202020202A825
:1015100054AA00FFFFFFFFFFFFFFFFFFFFFFFFFDDC
:10152000FFFFFDFEFDFAFCF9D0B0E0E0C0E0C0C076
:10153000808000000000000000F074672F47040660
:1015400000000000000000000000000080E0FF7FBD
:101550007F7F7F7F7F7F7F7F7F7F007F7F7F7F7F1A
:101560007F7F7F7F7F7F7F7F7F7F0300000000037F
:101570007F000000000000000000000000000000EC
:10158000000000000000000000000000000000AAB1
:1015900055AA007F7F7F7F7F7F7F7F7F7F7F7F7FD9
:1015A0007F7F7F7F7F7F7F7F7F7F7F7F7F7F7F7F4B
:1015B0007F7F7E7C7C7C7C7C7E7E7E7F7F7F7F7F4E
:1015C0007F7E7E7E7E7E7E7E7C7C7E7F7F7F7FFFB9
:1015D000FFFFFFFFFFFFFFFFFFFFFFFFFFFFFFFF1B
:1015E000FFFFFFFBC3CB9BBB737B7B737B7B737B5F
:1015F0007B40404040404040404040404040000030
:1016000000000000C0C0C0C0C0C0C0C0C0C0C0C2D8
:10161000C5CAC0FFFF1F1F0F07030301010101011E
:101620000203030303AA5107FFFFFFFFFFFFFFFFB2
:10163000FFFFFFFFFFFFFFFFFFFFFFFFFFFFFFFFBA
:10164000FFFFFFFFFFFFFFFFFFFFFFFFFFFFFFFFAA
:10165000FFFFFFFFFFFFFFFFFFFFFFFFFFFFFFFF9A
:10166000FFFFFFFFFFFFFFFFFFFFFFFFFFFFFFFF8A
:10167000FFFFFFFFFFFFFFFFFFFBFBF9F9F9F8F8A2
:10168000F8F8F8F8F9F9F9F9FBFBFFFFFFFFFFFFA6
:10169000FFFFFFFFFFFEFEFEFEFEFEFEFEFEFEFE65
:1016A000FEFEFEFEFEFEFEFEFFFFFFFFFFFFFFFF52
:1016B000FFFFFFFFFFFFFFFFFFFFFFFFFFFFFFFF3A
:1016C000FFFFFFFFFFFFFFFFFFFFFFFFFFFFFF80A9
:1016D00040FFFFFFFFFFFFFFFFFFFFFFFFFFFFFFD9
:1016E000FFFFFFFFFFFFFFFFFFFFFFFFFFFFFFFF0A
:1016F000FFFFFFFFFFFFFFFFFFFFFFFFFFFFFFFFFA
:10170000FFFFFFFFFFFFFFFFFFFFFFFFFFFFFFFFE9
:10171000FFFFFFFFFFFFFFFFFFFFFFFFFFFFFFFFD9
:10172000FFFFFFFFFFFFFFFFFFFFFFFFFFFFFFFFC9
:10173000FFFFFFFFFFFFFFFFFFFFFFFFFFFFFFFFB9
:10174000FFFFFFFFFFFFFFFFFFFFFFFFFFFFFFFFA9
:10175000FFFFFFFFFFFFFFFFFFFFFFFFFFFFFFFF99
:10176000FFFFFFFFFFFF7F3F1F1F1F1F1F0F0F0FF9
:101770000F0F1F1F1F3F3F7FFFFFFFFFFFFFFFFFF9
:10178000FFFFFFFFFFFFFFFFFFFFFFFFFFFFFFFF69
:10179000FFFFFFFFFFFFFFFFFFFFFFFFFFFFFFFF59
:1017A000FFFFFFFFFFFFFFFFFFFFFFFFFFFFFFFF49
:1017B000FFFFFFFFFFFFFFFFFFFFFFFFFFFFFFFF39
:1017C000FFFFFFFFFFFFFFFFFFFFFFFFFFFFFFFF29
:1017D000FFFFFFFFFFFFFFFFFFFFFFFFFFFFFFFF19
:1017E000FFFFFFFFFF07F000B82CACAE8C3CB83811
:1017F00028A8A880209000F007FFFF3FBF9FDFDFF1
:10180000CFEFE7F7F7F3FBFBFBFDFDFDFDFDFDFD76
:10181000FDFDFBFBF3F7E7CFDF9F1F5FDFDFDF1F80
:101820007F7FFFFFFFFFFFFFFFFFFFFFFFFFFFFFC8
:10183000FFFFFFFFFFFFFFFFFFFFFFFFFFFFFFFFB8
:10184000FFFFFFFFFFFFFFFFFFFFFFFFFFFFFFFFA8
:10185000FFFFFFFFFFFFFFFFFFFFFFFF1FEFE7F3AC
:10186000FDFDFDFDFDFCFCF0F7EEDEDEBEBFBBBB0B
:10187000BEBEDE5E6E73787C7C7D7D7C7F7F7F7FED
:101880007F7F6F6F6F6F6F677737333B393D3F3FB8
:101890003F3F3F3F7F7FBF7FFF1FFF9F7FFF8F3F08
:1018A000CF9E3EFCF9F30F7FFFFFFFFFFFFFFFFF1F
:1018B000FFFFFFFFFFFFFFFFFFFFFFFFFFFFFFFF38
:1018C000FFFFFFFFFFFFFFFFFFFFFFFFFFFFFFFF28
:1018D000FFFFFFFFFFFFFFFFFFFFFFFF00FFFFFF17
:1018E000FFFFFFFFFFFFFFFFFFFFFFFFFC180000F0
:1018F00038FCFF00000000000000000000000000B5
:1019000000000000000000000000020202020202CB
:1019100002A854AA00FFF0E6CFDF9E3C7DFDF9F15E
:1019200023BFD0DFDFDF0F607FFFFFFFFFFFFFFF81
:10193000FFFFFFFFFFFFFFFFFFFFFFFFFFFFFFFFB7
:10194000FFFFFFFFFFFFFFFFFFFFFFFFFFFFFFFFA7
:10195000FF7F7F7F7F7F7F7F7F7F7F7F007F7F7F96
:101960007F7F7F7F7F7F7F7F7F7F7F7F0300000080
:1019700000037F00000000000000000000000000E5
:101980000000000000000000000000000000000057
:1019900000AA55AA007F7F7F7F7F7F7F7E7C7F02AA
:1019A00038FF7F3F3F3F73E7F2E6FC7953077F7FC5
:1019B0007F7F7F7F7F7F7F7F7F7F7F7F7F7F7F7F37
:1019C0007F7F7F7F7F7F7F7F7F7F7F7F7F7F7F7F27
:1019D0007FFFFFFFFFFFFFFFFFFFFFFFFFFFFFFF97
:1019E000FFFFFFFFFFFBC3CB9BBB737B7B737B7B4B
:1019F000737B7B404040404040404040404040403E
:101A0000000000000000C0C0C0C0C0C0C0C0C0C056
:101A1000C0C2C5CAC0FFFF1F1F0F0703030101019A
:101A200001010202020202AB5105FCFEFEFFFFFFB4
:101A3000FFFFFFFFFFFFFFFFFFFFFFFFFFFFFFFFB6
:101A4000FFFFFFFFFFFFFFFFFFFFFFFFFFFFFFFFA6
:101A5000FFFFFFFFFFFFFFFFFFFFFFFFFFFFFFFF96
:101A6000FFFFFFFFFFFFFFFFFFFFFFFFFFFFFFFF86
:101A7000FFFFFFFFFFFFFFFFFFFFFFFBFBF9F9F990
:101A8000F8F8F8F8F8F8F9F9F9F9FBFBFFFFFFFFB0
:101A9000FFFFFFFFFFFFFFFEFEFEFEFEFEFEFEFE5F
:101AA000FEFEFEFEFEFEFEFEFEFEFFFFFFFFFFFF50
:101AB000FFFFFFFFFFFFFFFFFFFFFFFFFFFFFFFF36
:101AC000FFFFFFFFFFFFFFFFFFFFFFFFFFFFFFFF26
:101AD000FF8040FFFFFFFFFFFFFFFFFFFFFFFFFF54
:101AE000FFFFFFFFFFFFFFFFFFFFFFFFFFFFFFFF06
:101AF000FFFFFFFFFFFFFFFFFFFFFFFFFFFFFFFFF6
:101B0000FFFFFFFFFFFFFFFFFFFFFFFFFFFFFFFFE5
:101B1000FFFFFFFFFFFFFFFFFFFFFFFFFFFFFFFFD5
:101B2000FFFFFFFFFFFFFFFFFFFFFFFFFFFFFFFFC5
:101B3000FFFFFFFFFFFFFFFFFFFFFFFFFFFFFFFFB5
:101B4000FFFFFFFFFFFFFFFFFFFFFFFFFFFFFFFFA5
:101B5000FFFFFFFFFFFFFFFFFFFFFFFFFFFFFFFF95
:101B6000FFFFFFFFFFFFFFFF7F3F1F1F1F1F1F0F15
:101B70000F0F0F0F1F1F1F3F3F7FFFFFFFFFFFFFD5
:101B8000FFFFFFFFFFFFFFFFFFFFFFFFFFFFFFFF65
:101B9000FFFFFFFFFFFFFFFFFFFFFFFFFFFFFFFF55
:101BA000FFFFFFFFFFFFFFFFFFFFFFFFFFFFFFFF45
:101BB000FFFFFFFFFFFFFFFFFFFFFFFFFFFFFFFF35
:101BC000FFFFFFFFFFFFFFFFFFFFFFFFFFFFFFFF25
:101BD000FFFFFFFFFFFFFFFFFFFFFFFFFFFFFFFF15
:101BE000FFFFFFFFFFFFFF07F000B82CACAE8C3CFF
:101BF000B83828A8A880209000F007FFFFFFFFFF5B
:101C0000FFFFFFFFFFFFFFFFFFFFFFFFFFFFFFFFE4
:101C1000FFFFFFFFFFFFFFFFFFFFFFFFFFFFFFFFD4
:101C2000FFFFFFFFFFFFFFFFFFFFFFFFFFFFFFFFC4
:101C3000FFFFFFFFFFFFFFFFFFFFFFFFFFFFFFFFB4
:101C4000FFFFFFFFFFFFFFFFFFFFFFFFFFFFFFFFA4
:101C5000FFFFFFFFFFFFFFFFFFFFFFFFFFFF1FEF84
:101C6000E7F3FDFDFDFDFDFCFCF0F7EEDEDEBEBFA3
:101C7000BBBBBEBEDE5E6E73787C7C7D7D7D7D7D74
:101C800079630F7F7F7F7F7F7F7F7F7F7F7F7F7FF6
:101C90007F7F7F7F7F7F7FFFFFFFFFFFFFFFFFFFD4
:101CA000FFFFFFFFFFFFFFFFFFFFFFFFFFFFFFFF44
:101CB000FFFFFFFFFFFFFFFFFFFFFFFFFFFFFFFF34
:101CC000FFFFFFFFFFFFFFFFFFFFFFFFFFFFFFFF24
:101CD000FFFFFFFFFFFFFFFFFFFFFFFFFFFF00FF13
:101CE000FFFFFFFFFFFFFFFFFFFFFFFFFFFFFC18EE
:101CF000000038FCFF0000000000000000000000B1
:101D000000000000000000000000000002020202CB
:101D1000020202A854AA00FFFFEFC78301030F1FAE
:101D20007FFFFFE000000000E0FFFF7F3F1F070391
:101D3000018387CFFFFFFFFFFFFFFFFFFFFFFFFFD5
:101D4000FFFFFFFFFFFFFFFFFFFFFFFFFFFFFFFFA3
:101D5000FFFFFF7F7F7F7F7F7F7F7F7F7F7F007F92
:101D60007F7F7F7F7F7F7F7F7F7F7F7F7F7F03007E
:101D7000000000037F0000000000000000000000E1
:101D80000000000000000000000000000000000053
:101D9000000000AA55AA007F7F7F7F7F7F7E7C782E
:101DA00078797FFF7E3C3C3F7FFD78787C7E7E7F2C
:101DB0007F7F7F7F7F7F7F7F7F7F7F7F7F7F7F7F33
:101DC0007F7F7F7F7F7F7F7F7F7F7F7F7F7F7F7F23
:101DD0007F7F7FFFFFFFFFFFFFFFFFFFFFFFFFFF93
:101DE000FFFFFFFFFFFFFFFBC3CB9BBB737B7B733F
:101DF0007B7B737B7B4040404040404040404040C4
:101E00004040000000000000C0C0C0C0C0C0C0C052
:101E1000C0C0C0C2C5CAC0FFFF1F1F0F0703030118
:101E2000010101010202020202AB5107FFFFFFFFA5
:101E3000FFFFFFFFFFFFFFFFFFFFFFFFFFFFFFFFB2
:101E4000FFFFFFFFFFFFFFFFFFFFFFFFFFFFFFFFA2
:101E5000FFFFFFFFFFFFFFFFFFFFFFFFFFFFFFFF92
:101E6000FFFFFFFFFFFFFFFFFFFFFFFFFFFFFFFF82
:101E7000FFFFFFFFFFFFFFFFFFFFFFFFFFFBFBF980
:101E8000F9F9F8F8F8F8F8F8F9F9F9F9FBFBFFFFB8
:101E9000FFFFFFFFFFFFFFFFFFFEFEFEFEFEFEFE59
:101EA000FEFEFEFEFEFEFEFEFEFEFEFEFFFFFFFF4E
:101EB000FFFFFFFFFFFFFFFFFFFFFFFFFFFFFFFF32
:101EC000FFFFFFFFFFFFFFFFFFFFFFFFFFFFFFFF22
:101ED000FFFFFF08088181818991818181000000D5
:101EE00000003E5B4F5B3E3E6B4F6B3E1C3E7C3EBC
:101EF0001C183C7E3C181C577D571C1C5E7F5E1CCA
:101F000000183C1800FFE7C3E7FF0018241800FF83
:101F1000E7DBE7FF30483A060E2629792926407F7D
:101F2000050507407F05253F5A3CE73C5A7F3E1C8C
:101F30001C08081C1C3E7F14227F22145F5F005F78
:101F40005F06097F017F006689956A606060606056
:101F500094A2FFA29408047E040810207E2010089A
:101F6000082A1C08081C2A08081E101010100C1E35
:101F70000C1E0C30383E3830060E3E0E06000000B7
:101F8000000000005F00000007000700147F147FBE
:101F900014242A7F2A1223130864623649562050DB
:101FA0000008070300001C2241000041221C002AF7
:101FB0001C7F1C2A08083E080800807030000808B2
:101FC000080808000060600020100804023E514923
:101FD000453E00427F400072494949462141494DF2
:101FE000331814127F1027454545393C4A49493179
:101FF00041211109073649494936464949291E00F8
:1020000000140000004034000000081422411414A1
:10201000141414004122140802015909063E415DBE
:10202000594E7C1211127C7F494949363E4141414B
:10203000227F4141413E7F494949417F09090901C8
:102040003E414151737F0808087F00417F410020D5
:1020500040413F017F081422417F404040407F02C1
:102060001C027F7F0408107F3E4141413E7F0909E9
:1020700009063E4151215E7F0919294626494949F1
:102080003203017F01033F4040403F1F2040201F9B
:102090003F4038403F63140814630304780403612D
:1020A00059494D43007F414141020408102000413D
:1020B00041417F04020102044040404040000307C8
:1020C000080020545478407F28444438384444441D
:1020D00028384444287F385454541800087E090294
:1020E00018A4A49C787F0804047800447D40002054
:1020F00040403D007F1028440000417F40007C04A8
:102100007804787C080404783844444438FC182463
:10211000241818242418FC7C080404084854545437
:102120002404043F44243C4040207C1C2040201CCC
:102130003C4030403C44281028444C9090907C44D3
:1021400064544C4400083641000000770000004110
:1021500036080002010204023C2623263C1EA1A1EF
:1021600061123A4040207A385454555921555579D6
:102170004121545478412155547840205455794098
:102180000C1E5272123955555559395454545939F7
:10219000555454580000457C410002457D420001E1
:1021A000457C40F0292429F0F0282528F07C54555E
:1021B00045002054547C547C0A097F4932494949DE
:1021C000323248484832324A4848303A4141217A0E
:1021D0003A42402078009DA0A07D39444444393DD6
:1021E0004040403D3C24FF2424487E4943662B2F39
:1021F000FC2F2BFF0929F620C0887E0903205454A8
:1022000079410000447D413048484A3238404022FC
:102210007A007A0A0A727D0D19317D2629292F2824
:10222000262929292630484D402038080808080862
:10223000080808382F10C8ACBA2F102834FA00004C
:102240007B000008142A142222142A140895002264
:102250000095AA005500AAAA55AA55AA000000FF99
:1022600000101010FF00141414FF001010FF00FFE6
:102270001010F010F0141414FC001414F700FF00F8
:1022800000FF00FF1414F404FC141417101F1010A6
:102290001F101F1414141F00101010F00000000075
:1022A0001F101010101F10101010F010000000FF71
:1022B000101010101010101010FF10000000FF146C
:1022C0000000FF00FF00001F10170000FC04F414C2
:1022D000141710171414F404F40000FF00F714147A
:1022E0001414141414F700F7141414171410101FF6
:1022F000101F141414F4141010F010F000001F102C
:102300001F0000001F14000000FC140000F010F07B
:102310001010FF10FF141414FF141010101F0000F1
:102320000000F010FFFFFFFFFFF0F0F0F0F0FFFF04
:10233000FF0000000000FFFF0F0F0F0F0F38444495
:1023400038447C2A2A3E147E02020606027E027E61
:102350000263554941633844443C04407E201E20BA
:1023600006027E020299A5E7A5991C2A492A1C4C5F
:102370007201724C304A4D4D303048784830BC6262
:102380005A463D3E494949007E0101017E2A2A2ADA
:102390002A2A44445F444440514A444040444A51FC
:1023A000400000FF0103E080FF000008086B6B089D
:1023B0003612362436060F090F06000018180000E2
:1023C000001010003040FF0101001F01011E001924
:1023D0001D1712003C3C3C3C0000000000F0F89C43
:1023E0008E8783878E9CF8F00000FEFF03030303B3
:1023F00003070EFCF80000FEFF0303030303070EB0
:10240000FCF80000FFFF00000000000000FFFF00DC
:1024100000FEFF8383838383C7EE7C380000F8FCD3
:102420000E07030303070EFCF800003F7FE0C080A7
:1024300080C0E07F3FFFFF01010101010101FFFFBB
:102440000000FFFF0C0C0C0C1C3E77E3C100007F6A
:10245000FFC0C0C0C0C0E0703F1F00001F3F70E061
:10246000C0C0C0E0703F1F00007FFFC1C1C1C1C13B
:10247000E3773E1C00001F3F70E0C0C0C0E0703F2B
:102480001F000000000001FFFF01000000D5F08DDB
:1024900014A1C881CFD9F1AF20001010008040E016
:1024A000200C3E333BFB3A848C8040C0070F9FF6E4
:1024B00078787A1C3879FE808000000010200000B7
:1024C000000018FCE6F6F408180000000000000008
:1024D00030F8F42241810204F800808000000000FE
:1024E00060FF40C1C3C2E3B97E733B1F0F00000011
:1024F000E0333E3F0301037F7F4040000000102097
:10250000000000000080C0707070408080000000FB
:102510000000E0D07011170E0F8FF7C0C14080C0CF
:10252000070F7EE160E0E7E8E0A33C010101000164
:1025300000000040F3FF9F1903070F0C180C06035F
:10254000DA01B8017601540132011001EE00AC004D
:10255000080800007C7C7E7D2810080800007C7C38
:102560007E7C2810080800007C7C7C7C281065029A
:102570002F02FC010B0278009302780010038C00FC
:10258000178404010000B40093027800100378005F
:1025900017048C00278540010000F401018093029C
:1025A00096004B0296000B02D200000078008801D2
:1025B000B4004A01B40006814A010000EE02018025
:1025C0000B026E0093026E0010036E001784DC0095
:1025D000000046001003640017046E0027851801F0
:1025E00000005000008026014001B801A0004B020D
:1025F000E000000040005D010001B801A0000B02F6
:10260000E00000004000F70040015D01A000EE0185
:10261000E000000040002601C0005D01A000B801FC
:10262000C00000006000060100018801A0000B024C
:10263000E000000040004A01C0008801A000EE0157
:10264000C0000000600026014001B801A0004B025C
:1026500040010000C00001804A814B0006016E006D
:1026600000800B022300930223007083410000804E
:10267000435550533A2000474F21001020000000DE
:102680000018FCE6F6F4081800000000000000F056
:10269000C8740A010102847860602000001E1E7A5E
:1026A000FB7AFEFEE0E0A33C000000000000000119
:1026B00002FEFF8381031F3F7020100000B302A1C0
:1026C000028F0280400000000000000000000000B7
:1026D0000000000000F000000000F0000000E0102A
:1026E000101010E00000F000000000F0041C0000DA
:1026F000F08888888870000000708888880800004A
:102700000000000000000000F8C8C84808080008E1
:102710000808F808080800F08888888870000070A9
:10272000888888080000F8081830E00000000000E1
:102730000000000000000000000000000000000099
:102740000000000000000000000000000000000089
:1027500000000000001011111109070000000F1007
:102760001010100F00000F101010100F00000000CC
:102770001F0000018E100000000708080808000074
:10278000D0E00000000000000F0000000000000882
:1027900008080F080808000F0000010608000007DD
:1027A000080808080000CF28242633101010101045
:1027B000101010102020C0000000000000000000D9
:1027C0000000000000000000000000000000000009
:1027D00000000000000000000000000000000000F9
:1027E0000000F80808080808080808080808080889
:1027F0000808083EEE3F7F7EBCFFF2F0F0F9F8FCDF
:10280000FFE0F0F8C80000C0E0B8FE1D00000000C6
:1028100000000000000000000000C820000000F9D7
:10282000E4000080808708D81646575696DCDC9472
:1028300044545410D8D0108F8000000000000000D5
:102840000000000000000000000000000000000088
:102850000000000000000000000000000000000078
:102860000000FF20202222232321212111131313F2
:1028700013131313FF11112120FF2127FF070F1F2F
:102880001F3F6FFF7F7FFDC1F1781800008040007F
:1028900000008010000000000000C0039CBCF7FF97
:1028A000FFFFFFFFFFFFF8FBF7EFEF5B5D5D5D5D97
:1028B0005B5FEFEFF7FBFCFFFFFFFFFEFCF00000AC
:1028C0000000000000000000000000000000000008
:1028D00000000000000000000000000000000000F8
:1028E0000004FF04040404848E0E0E0E0A1E1E1E35
:1028F0001E1E1A1A3F1A1A1A1AFF0A0A0B1EEE0E89
:102900000A0A0A0A07070F0CF30002FCF8E1F2F8C2
:10291000FCFECEC7E0E0F41208003BFFFFE0FFFF43
:10292000FFFFFFFFFFFFFFFFFFFFFFFE0C000004A4
:10293000FCFEFFFFFFFFFFFFFFFFFFFFFFFF0000A9
:102940000000000000000000000000000000000087
:10295000000000000000E0E0A0A020202020E00017
:1029600000000101010101010101018181818181D9
:102970008181FFFFFFFFFFFFFF81818181818181D5
:102980000101010101010101010020AFABABABABC3
:10299000ABABABABA9A90800000000070F1FFFFFFE
:1029A000FFFFFFFFFFFFFFFFFFFFFF010000000031
:1029B000030FFFFFFFFFFFFFFFFFFFFFFFFF000011
:1029C0000000000000000000000000000000000007
:1029D00000000000FE02030303038302020203025D
:1029E0000202828282028282820283838303838341
:1029F00083038303830303030303038383830303A7
:102A000003020282820282820282828303830303A0
:102A10000387078F0BAF0B0302FE00000000FFFFD0
:102A2000FFFFFFFF037F7F7F7F7F7F7E7C78707853
:102A30007C7E7F7F7F7F7F7F03FFFFFFFFFF0000A4
:102A40000000000000000000000000000000000086
:102A500000000000FF000000000F040F0000020251
:102A600000000F020D000F0A0800000F00000F0207
:102A70000D00010E010000000000000F0A0D000013
:102A80000202000F0001000F000F0A08000F0102F0
:102A9000040F000F080F000000FF00000000077483
:102AA0007777777700000202020200070705050525
:102AB00007070002020202000077777774370000F0
:102AC0000000000000804000000000000000000046
:102AD0000000000000000000000010000000E00006
:102AE0000000000080000000000000000000000066
:102AF00000000000000000000000000000000000D6
:102B000000000000000000000080000000009000B5
:102B100000000000000000000000000000000000B5
:102B200000000000000000000000000000000000A5
:102B3000000080C0C0D0E8EC0000000000000000F1
:102B40000000000000000000000000000000000085
:102B5000000000000000002000000404040EFF0E2E
:102B60000404040080808080808080808080808059
:102B70008080808080808080808080808080808055
:102B8000808080808080808080808008081CFF9CFE
:102B9000C8880100200000000000000000000000C4
:102BA0000000000000000000C02020202010182C91
:102BB0002E77F7FB7B7DBDBEDE000000000000002D
:102BC0000000000000000000000000000000000005
:102BD00000000000000000000000001000000108DC
:102BE000087F0800FF00000080000020E0000000D7
:102BF000003C404040FC000000F8040404F80000E1
:102C0000FC00000000FC00000000FF0000080100C4
:102C100001000000000000000000000000000000B3
:102C2000000000000080808708D81646575696DCC2
:102C3000DC9444545511D9D0108F8000000000005E
:102C40000000000000000000000000000000000084
:102C500000000000000000008000003078F87000E4
:102C600000000000FF000000080000203F000000FE
:102C7000F80102FA0201F80000090AFA0A09000044
:102C8000F93162C281F900000000FF00000000007D
:102C900000000040000000000000000000000000F4
:102CA000F0FCFEFFFFFFFFFFF8FBF7EFEF5F5D5D5E
:102CB0005D5D5F5FEFEFF7FBFCFFFFFFFFFEFCF0EA
:102CC0000000000000000000000000000000000004
:102CD00000000000000000000003FE303E3BFC044A
:102CE000040000001F101010101010101010101011
:102CF00011121211F2F2F1F0F0F2F213121210109E
:102D0000131010101113101010101F000000C060DD
:102D10007070606F60707060C000000000000000A4
:102D2000FFFFFFFFFFFFFFFFFFFFFFFFFFFE0C00A6
:102D30000004FCFEFFFFFFFFFFFFFFFFFFFFFFFFA1
:102D40000000000000000000000000000000000083
:102D5000000000000000E02020203F2020203F2035
:102D6000202020202020202020202020303838380B
:102D7000383838383F3F3F3F3F3F3F3838383838A2
:102D8000383830202020202020202424242C2F28D4
:102D900028282828282828282F2C24E40000000090
:102DA000FFFFFFFFFFFFFFFFFFFFFFFFFF0100002F
:102DB0000000030FFFFFFFFFFFFFFFFFFFFFFFFF0D
:102DC0000000000000000000000000000000000003
:102DD000000000000000FF010101010101010101EB
:102DE000010101010101010101E1A1A14101E1A1F3
:102DF0006101E1A1210161A1210161A12101018103
:102E000081810101C121C101010101010101010112
:102E10000101010101010101010101FF00000000A8
:102E2000FFFFFFFFFFFF037F7F7F7F7F7F7E7C7839
:102E300070787C7E7F7F7F7F7F7F03FFFFFFFFFFB8
:102E40000000000000000000000000000000000082
:102E5000000000000000FF00000000000000000073
:102E6000000000000000000000030000000003005C
:102E7000030003020200020203000202030000003A
:102E8000000000000301030000000000000000003B
:102E900000000000000000000000008700000000AB
:102EA00007747777777700000202020200070705B0
:102EB00005050707000202020200007777777437E2
:102EC0000000000000000052554E2053434F524571
:102ED00020004355505320004355505320004C458B
:102EE00056454C20434F4D504C455445005052459B
:102EF0005353204120544F20524553554D450050C7
:102F00004155534500C706C50242533A2000804050
:102F100000000000000000000000000000000000B1
:102F200000000000000000000000000000000000A1
:102F30000000000000E09000000000000000000021
:102F40000000000000000000000000000000000081
:102F50000000000000000000000000000000000071
:102F60000000000000000000000000000000000061
:102F70000000000000000000000000000000000051
:102F80000000000000000000000000000000000041
:102F900000000000000000000000101818181818A9
:102FA0000800E0F8FEFE0680C0E0F8FC3C000000EF
:102FB000F0F89C06060626370E069CF8F0C0C0C046
:102FC0008000000000FCFCE0C0000000000CFCE001
:102FD0000000000606FEFEFE3E3E3E7EFEFCF8E0E1
:102FE000C0000000000EFEFEFEFE3E7E7CF0E0C053
:102FF00000000000080E1E7EFEFEF8E0800000804B
:10300000C0F8FEFEFE3E0E080020203030101000FA
:103010000000203030303233331303030381E0F0FB
:10302000FC3F1FFFFFFF7F3FDFFFFF0F000000009F
:10303000FFFFFFFEFCFCFCFCFCFEFFFFFF6060608E
:103040003F000000FFFFFF3F7F7FFCF0C0F0FFFF6D
:103050000000000000FFFFFF0000000080FFFFFFF6
:10306000FF0000000000FFFFFFFFC0C0C0C0C3CFD3
:10307000FEF8E080000000000103070F1FFFFFFFC4
:103080001F0F030140606064662606060200000010
:1030900000000000000000000010181E0F070301D0
:1030A0000000000301000000031F1F0000000000DB
:1030B000070F1F1F1F1F1F1F1F1F1F0F07000000CD
:1030C00000101C0F070301000000010F1F1F0F035A
:1030D00000000018181F1F1F1E1E1E1F1F0F0703B2
:1030E00001000010181C1F1F1F1F01010101011FFB
:1030F0001F1F1F1F1C18000000000010181F1F1F9B
:1031000018000000000000000000000000000000A7
:1031100000000000000000000000000080C0C0604F
:10312000606040008000000000000000000000001F
:10313000F04850E00000004040400000B8A8E8001F
:103140000808F80808F04850E000F02828508008E7
:1031500008F808080000000000000000000000005F
:10316000000000000000000000000000000000005F
:10317000000000000000000000000000000000004F
:103180000000000000000000C0E0F0F8F8F8F800CF
:103190000000000000808000000080C0C6CFDFDE9D
:1031A000FFFFDFCFC1C0E070300000000000000072
:1031B000C0A0A0400000008080800000C02020004F
:1031C000C02020C000E0408000E0002020E020205F
:1031D00000C0A0A0400000C02020C000E00000000F
:1031E000E0A0A00000000000000000FC0607274748
:1031F0008707070707070707070707070707FFFFEF
:10320000FF000000F0F0E0E0E3CFFF0F07010080D7
:1032100000000C3E7FFFFBF67E3301000000001E25
:10322000FFFF3F303030F0F00000000000000000F1
:103230000302020100000000000000000102020081
:10324000010202010003000001030000000300006E
:10325000000300000102000102020100030202005B
:1032600002020300000000000080809F9090929175
:1032700090909090F1F191919190909090909F8F7B
:1032800007000080808183878F8FFFBEBEBF9F872E
:10329000E0A0E060E0E0E1E0E0E0E0E0E0A66DEB8F
:1032A000E3E1E0E0E0E0E7E5A660E0E0E0E0E0E0C8
:1032B000E0E0E0A060E0E0E0E0E0E0E0E0E0A0608E
:1032C000E0E0E0E0E0E0E0E0E0A060E0E0E0E0E0BE
:1032D000E0E0E0E0A060E0E0E0E0E0E0E0E0E0A0EE
:1032E00060E0E0E0E0E0E0E0E0E0A17FE3E3E3E3F2
:1032F000E3E3E3E3E3A363E3E3E3E3E7E3FFE1E043
:10330000A060E0E0E1E3E7EFFFFFFFBF7FFFFFFF2B
:10331000D11ACF16CD12CB0EC90A080B0002020239
:103320000000090400000102020000052400100151
:1033300005240101010424020605240600010705F5
:10334000810310004009040100020A000000070583
:103350000202400000070583024000000403090444
:1033600012010002EF020140412336000001010278
:10337000030141726475696E6F204C4C43004172C9
:103380006475626F7900402511241FBECFEFDAE02B
:10339000DEBFCDBF11E0A0E0B1E0EEE8F0E602C094
:1033A00005900D92A634B107D9F726E0A6E4B1E066
:1033B00001C01D92AB36B207E1F719E1C4ECD9E1C7
:1033C00004C02197FE010E943F30C33CD107C9F7DA
:1033D0000E946D250C9445300C940000809154019E
:1033E0000895E7E0F2E0A0E0B8E000800EBC8111B3
:1033F000012C1197A0FDFDCF0192B9F70DB40895EE
:10340000FC0180910602882311F13FB7F89482E015
:103410008093E9002091F200822F90E0181619069F
:1034200014F481E090E0882339F0289844E6409332
:1034300005024091F1004083222339F02091F200EF
:10344000211103C02BE62093E8003FBF08958FEFC2
:103450009FEF08952FB7F89483E08093E90090914F
:10346000E800892F807295FF04C09091F20080E4FB
:10347000891B2FBF08958091FD0181110DC082E04D
:103480008093F90184E08093FA011092FC0110927C
:10349000FB0181E08093FD0189EF91E00895CF93D6
:1034A000DF931F92CDB7DEB76983DC01ED91FC910C
:1034B0000280F381E02D41E050E0BE016F5F7F4F5D
:1034C00009950F90DF91CF91089583E08093E900F3
:1034D0008091F200882319F08AE38093E800089530
:1034E0000E942A1A90E00895CF93DF931F92CDB7E0
:1034F000DEB7FC018485958597FD08C02FEF3FEF6F
:10350000358724870F90DF91CF910895CE010196E2
:103510000E94001A019719F4898190E0F3CF8FEF90
:103520009FEFF0CF0F931F93CF93DF931F92CDB7F1
:10353000DEB78C01FC018485958597FF0BC0CE0119
:1035400001960E94001A019771F4898190E0F801B8
:1035500095878487F801848595850F90DF91CF91B9
:103560001F910F9108958FEF9FEFF1CFFC0184859C
:10357000958597FD0BC09FB7F89482E08093E90092
:103580008091F2009FBF90E0019608959FB7F89454
:1035900082E08093E9008091F2009FBF90E008955F
:1035A0004091F3015091F4012091F1013091F20129
:1035B00042175307B4F49091E8009570E1F39091AD
:1035C000E80092FD19C08093F1008091F301909181
:1035D000F40101968F739927892B19F48EEF80934C
:1035E000E8008091F3019091F40101969093F40129
:1035F0008093F30181E0089580E00895DF92EF92D7
:10360000FF920F931F93CF93DF93D82E8A01EB0184
:103610007B01E40EF51ECE15DF0559F0D7FE12C072
:10362000FE0184910E94D01A21968111F4CF0FEFF0
:103630001FEFC801DF91CF911F910F91FF90EF9085
:10364000DF9008958881EECF0F931F93CF93DF9380
:103650001F92CDB7DEB782E0898342E450E06AE191
:1036600073E380E80E94FE1A0E943B1ADC01129666
:103670000D911C910115110589F0D801ED91FC9176
:103680000280F381E02DBE016F5F7F4FC801099575
:1036900097FD04C0F80100851185ECCF89810F905A
:1036A000DF91CF911F910F910895615030F02091DB
:1036B000F100FC0120830196F8CF289884E68093DE
:1036C000050208953FB7F8948091ED019091EE01C5
:1036D000A091EF01B091F00126B5A89B05C02F3F46
:1036E00019F00196A11DB11D3FBFBA2FA92F982F28
:1036F0008827BC01CD01620F711D811D911D42E023
:10370000660F771F881F991F4A95D1F708958F92EA
:103710009F92AF92BF92CF92DF92EF92FF926B0196
:103720007C010E94621B4B015C01C114D104E104C5
:10373000F104B9F00E94621B681979098A099B0992
:10374000683E73408105910580F321E0C21AD108DB
:10375000E108F10888EE880E83E0981EA11CB11CD8
:10376000E4CFFF90EF90DF90CF90BF90AF909F900D
:103770008F9008958F929F92AF92BF92CF92DF92D7
:10378000EF92FF920F931F93CF93DF936C017B0116
:103790008A0180911201882309F45CC0809106029D
:1037A000882309F457C08091F80180FF05C08091FB
:1037B000E00082608093E000E801B12C8AEFA82E3F
:1037C00093E0892E2AE3922E209711F4BB20D9F1A1
:1037D0000E942A1A81110AC0AA94AA20D9F161E094
:1037E00070E080E090E00E94871BEECF8C171D06F2
:1037F00011F00CF08C2F9FB7F8948092E900209183
:10380000E80025FD02C09FBFDFCF282F30E0C21B9C
:10381000D30BF701815020F041914093F100FACF92
:10382000E20EF31EBB2021F09092E800B12CEBCF0A
:103830008091E80085FDE7CF9092E800BB24B39427
:10384000209709F3F3CF5D9884E68093F701101673
:1038500011063CF081E090E0F6019383828310E052
:1038600000E0C801DF91CF911F910F91FF90EF9081
:10387000DF90CF90BF90AF909F908F9008952FB71B
:10388000F8946091E9017091EA018091EB019091C7
:10389000EC012FBF0895AF92BF92CF92DF92EF92CB
:1038A000FF920F931F93CF93DF936C017B018B01EA
:1038B000040F151FEB015E01AE18BF08C017D1073A
:1038C00059F06991D601ED91FC910190F081E02DC4
:1038D000C6010995892B79F7C501DF91CF911F9119
:1038E0000F91FF90EF90DF90CF90BF90AF90089531
:1038F00020914D01E0914B01F0914C01CF010296D6
:1039000090934C0180934B01222319F0859194915F
:103910000895808191810895E1E7F0E080818D7FB5
:103920008083109291004698479810924A0108951A
:10393000CF92DF92EF92FF92CF93DF930E94781C99
:10394000811520E8920741F4DF91CF91FF90EF902D
:10395000DF90CF900C948C1C21E020934A018130A1
:1039600020E8920751F48091480190914901909389
:103970004C0180934B010E94781C97FD05C020915B
:103980004701222309F45BC020914601211157C051
:1039900021E020934E01EC01DF77209709F052C01F
:1039A00081E080934F0146983FE9C32E3FE0D32E3C
:1039B000E12CF12CCAEFD0E0E0916506F0916606AB
:1039C0000995811103C081E080934F0180914E01E0
:1039D000882329F080914F01882309F446C0479835
:1039E0000E94781C009709F444C09C01DE010E94EB
:1039F0000830DC01CB0129E0B595A795979587950F
:103A00002A95D1F7109290002AE020939100D0924D
:103A10009900C09298008093500190935101A09317
:103A20005201B093530180917100826080937100C4
:103A3000DF91CF91FF90EF90DF90CF90089510929B
:103A40004E01A9CF9E0150E040E060E472E48FE0B7
:103A500090E00E94B42F69017A0181E0C81AD10870
:103A6000E108F10810924F01A7CF4699B8CF479AC5
:103A7000B7CF8FEF9FEFDC01C5CF9C01E1E7F0E00E
:103A800090819D7F908381E080934D0130934C0124
:103A900020934B0130934901209348010C94981CCA
:103AA0004F925F926F927F928F929F92AF92BF924E
:103AB000CF92DF92EF92FF920F931F93CF93DF93FA
:103AC0004C015901FC2DC02FD0E0CE01880D991D6D
:103AD000181619060CF06CC020E8821691040CF040
:103AE00067C09B012E0D311D121613060CF060C02D
:103AF000603471050CF05CC04115510509F458C0E3
:103B0000E62FE770FE2EDB0177FD179633E0B595C3
:103B1000A7953A95E1F73A2F77FF04C0FF2011F0FF
:103B20003FEF3A0F662777276819790997FC02C09B
:103B300070E060E0803891050CF44BC090E8981973
:103B4000961BA32F032E000CBB0B1A2F10953F3F83
:103B50000CF010E021E08E2D877009F420E0E6944F
:103B6000E694E694E20EAE0DB11D19971CF028E024
:103B7000E22EE31AE11A310F20E83203D0011124BA
:103B8000A80DB91DA60FB71F019F600D711D11244F
:103B9000460F571F0F2D0F2C000C110BF33009F49B
:103BA0001CC1C8F4F13009F4D0C0F23009F47CC073
:103BB000DF91CF911F910F91FF90EF90DF90CF9009
:103BC000BF90AF909F908F907F906F905F904F903D
:103BD0000895902FB5CFFA3FB1F1232F2E0DFB3F63
:103BE00039F7321729F3BD01695F7D4FD12CC12C04
:103BF000C91608F0A4C0FA01EC0DFD1DE491F0E037
:103C00004F01002E02C0880C991C0A94E2F737FD80
:103C100006C0FB018081E82CE0948E218083FF2088
:103C200061F0373054F45B01F0E8AF0EB11CE92CC1
:103C3000E094F50180818E218083FFEFCF1ADF0AA7
:103C40006F5F7F4FD5CF232F2E0D321709F4B0CFE2
:103C5000BD01695F7D4FD12CC12CC91608F069C028
:103C6000FA01EC0DFD1DE491F0E04F01002E02C0C1
:103C7000880C991C0A94E2F737FD04C0FB0180818F
:103C800088298083FF2051F0373044F45B01F0E84D
:103C9000AF0EB11CF501808189298083FFEFCF1A17
:103CA000DF0A6F5F7F4FD9CF6FEF70E00F2C02C03C
:103CB000660F771F0A94E2F760957095772E232F91
:103CC0002E0D321709F474CFFD01E95FFD4F6F012E
:103CD000B12CA12CA91638F5FA01EA0DFB1DE491CF
:103CE000F0E02F01002E02C0440C551C0A94E2F7AC
:103CF00037FD05C0F6018081862384298083FF205B
:103D000059F037304CF44601F0E88F0E911CF40165
:103D10008081872185298083FFEFAF1ABF0A8FEF4B
:103D2000C81AD80AD7CF3F5F4C0F5D1FA058BF4FAE
:103D3000C8CF3F5F4C0F5D1FA058BF4F86CF3F5F7E
:103D40004C0F5D1FA058BF4F4CCF6A0D7B1D232F1A
:103D50002E0D321709F42CCFFD01E95FFD4F6F01E5
:103D6000B12CA12CA91688F5FB01EA0DFB1D84904E
:103D7000912C002E02C0880C991C0A94E2F78094C2
:103D80009094FA01EA0DFB1D6490712C002E02C084
:103D9000660C771C0A94E2F737FD05C0F6018081B6
:103DA000882186298083FF2049F037303CF4F601D2
:103DB000E058FF4F8081892187298083FFEFAF1A68
:103DC000BF0A8FEFC81AD80ACDCF3F5F4C0F5D1FD7
:103DD0006C0F7D1FA058BF4FBCCFC92ED12CFA014C
:103DE000E60FF71FA95FBD4F00E810E00C191D0991
:103DF000CC19DD09BE01660F771F41E050E06A0172
:103E00000F2C01C0CC0C0A94EAF7592F2E2D792ED5
:103E1000CF93DF93ED01EF96EF9622968590A590D4
:103E2000FF2059F08C9C4001AC9C500137302CF4A1
:103E3000E880B094EB20E928E99233233AF0EC9043
:103E4000A094EA20E828ED920C94271F11965A9529
:103E500029F72A9551F0572D33951124E60FF11DBE
:103E6000A00FB11DC00FD11DD9CFDF91CF9111246B
:103E70009FCECF92EF920F934115510561F0FA0159
:103E800004913196E4904E5F5F4F2AEFC22E30E0EE
:103E900020E00E94501D0F91EF90CF900895CF9297
:103EA000EF920F934115510561F0FA01049131969B
:103EB000E4904E5F5F4F22E0C22E30E020E00E948F
:103EC000501D0F91EF90CF9008952D9A0895BC0149
:103ED00090E080E00C94871B8FB18095807F669B7B
:103EE00088601C9B846008953E9A3F9A81E080938D
:103EF0005401089580E0E7E0F2E081118FEF0024A3
:103F000081938193819381930394D1F710928501DA
:103F10001092840110928701109286010895909169
:103F20008B01982329F490918C01982381E009F466
:103F300080E0089580E00C94F11980389105B8F480
:103F400060347105A0F420E191E061FD94E060FD32
:103F5000990F62FD9295687F269FD0011124A80FCA
:103F6000A95FBD4F8C9140FF03C0892B8C930895AE
:103F700090958923FBCFAF92BF92CF92DF92EF92C1
:103F8000FF920F931F93CF93DF938C016B01C81A9D
:103F9000D90AD7FE03C0D194C194D1088FEF061778
:103FA00017070CF481E0C0E4D0E0F12CE12CA82E3E
:103FB000880FBB0841E0B801C7010E949D1FCC19C2
:103FC000DD09D7FF04C00A0D1B1DC058DF4F8FEF5E
:103FD000E81AF80A81E8E816F10461F7DF91CF9159
:103FE0001F910F91FF90EF90DF90CF90BF90AF9017
:103FF00008958F929F92AF92BF92CF92DF92EF92ED
:10400000FF920F931F93CF93DF936D3089F0C09091
:104010008401D09085016A30D1F41092870110920A
:10402000860188E0C80ED11CD0928501C09284011F
:1040300081E090E0DF91CF911F910F91FF90EF9081
:10404000DF90CF90BF90AF909F908F900895009198
:10405000860110918701E5E06E9FE0011124C352B3
:10406000D14E4801F12CF5E0E12CFF1629F0CE01EC
:104070000196FE01E490EC01B12CA12C4E2D417073
:10408000B6016A0D7B1DC4010E949D1FE694FFEFDF
:10409000AF1ABF0A88E0A816B10481F7F394EFEFD6
:1040A0008E1A9E0AF6E0FF12DECF0A5F1F4F1093B2
:1040B000870100938601BCCF0F931F93CF93DF93AB
:1040C0008C01D0E0C0E0F801EC0FFD1F6491662385
:1040D00041F087E696E00E94F91F892B11F02196A6
:1040E000F2CFCE01DF91CF911F910F910895EDE8AE
:1040F000F1E030E020E0A081B181AC3EBF4FA4F5FB
:1041000097E0929FF001939FF00D1124E357FE4F2B
:104110005183408362838383823039F070F196E269
:10412000853021F09CE2873009F49AE147E0429F14
:10413000D001439FB00D1124A357BE4F14969C93FA
:10414000149791E0823009F090E015969C9387E0F7
:10415000829FD001839FB00D1124A357BE4F81E0F1
:1041600016968C93CF0108952F5F3F4F37962A30D4
:10417000310509F6F0E0E0E0F5CF99E16230B1F603
:1041800090E1D4CFE2E6F1E08EE1118210828283E9
:104190001382349691E0E238F907B9F70895CF9386
:1041A000DF93809182019091830168E070E00E942A
:1041B0002B30CC27DD27C81BD90B43ED5EE168E32C
:1041C00070E0CE010E944F1F2896C038D105ACF395
:1041D000DF91CF910895089590E080E00895CF9207
:1041E000DF92EF92FF920F931F93CF93DF93CDB7A0
:1041F000DEB7A1970FB6F894DEBF0FBECDBF282F54
:1042000030E050E040E019A28E010F5D1F4F8AE0C0
:10421000C82ED12CE12CF12CCA01B901A7019601BD
:104220000E94E62F605DF80162938F012115310530
:104230004105510589F790E080E0309761F00190E9
:104240000020E9F73197AF01401B510BB80187E619
:1042500096E00E944B1CA1960FB6F894DEBF0FBEED
:10426000CDBFDF91CF911F910F91FF90EF90DF9025
:10427000CF900895CF92DF92EF92FF92E091E0010C
:10428000F0E0E95EFE4F808180930301809302019C
:1042900010928301109282010E943D2F23E0C22ED2
:1042A000D12CE12CF12CA70196010E94B42F609330
:1042B000D9010E943D2FA70196010E94B42F60935F
:1042C00006011092D4011092D3018091DD018093F8
:1042D000DA01EDE8F1E028ED3FEF8EE23183208353
:1042E00012821382848315821682379691E0E33D11
:1042F000F907A1F71092DF011092DE01109261011F
:1043000088E0809304018EE18093050184E090E0D1
:104310009093D8018093D7011092D50181E08093CA
:1043200001011092D60110928A010E94C2200E94BF
:104330003F1C6093E1017093E2018093E30190934D
:10434000E401FF90EF90DF90CF9008950C949E2FA2
:10435000FF920F931F93CF93DF93EC01F62E08810A
:104360001981C8010E949E2FF81621F06F2DC801F7
:104370000E94A62FCE01DF91CF911F910F91FF9048
:1043800008951F920F920FB60F9211248F939F934F
:104390008091E1009091E100937F9093E10083FF91
:1043A0000FC01092E90091E09093EB001092EC00A6
:1043B00092E39093ED001092060298E09093F00043
:1043C00082FF22C093E09093E9009091F20099233C
:1043D00019F09AE39093E8009091F701992341F046
:1043E0009091F70191509093F701911101C05D9A5E
:1043F00090910502992341F090910502915090937C
:104400000502911101C0289A84FF18C08091E20032
:104410008E7E81608093E2008091E1008F7E8093A8
:10442000E1008091F8018E7E80618093F8019F9178
:104430008F910F900FBE0F901F90189580FFF7CFB0
:104440008091E2008E7E80618093E2008091E100A5
:104450008E7E8093E1008091F8018E7E8160E5CFB1
:104460001F920F920FB60F921124CF92DF92EF920C
:10447000FF920F931F932F933F934F935F936F93ED
:104480007F938F939F93AF93BF93EF93FF93CF93BC
:10449000DF93CDB7DEB76C97DEBFCDBF1092E900DA
:1044A0008091E80083FF25C068E0CE0145960E9418
:1044B000551B82EF8093E8008D8987FF39C090916A
:1044C000E80090FFFCCF982F907609F034C19E89C8
:1044D0004F89588D2F89F88C911131C0803861F542
:1044E0008091F6018093F1001092F1008EEF80939D
:1044F000E8006C960FB6F894DEBF0FBECDBFDF911B
:10450000CF91FF91EF91BF91AF919F918F917F914B
:104510006F915F914F913F912F911F910F91FF905C
:10452000EF90DF90CF900F900FBE0F901F901895D7
:104530009EEF9093E800C7CF1092F100D5CF913055
:1045400059F48111D3CF4130510581F68091F601A4
:104550008D7F8093F601CACF933049F48111C6CF85
:104560004130510519F68091F6018260F2CF953005
:1045700041F48091E80080FFFCCF20682093E300A5
:10458000B5CF963009F0A9C00B8D1C8D22E010929A
:10459000E9001092F4011092F301F2122EC0109271
:1045A000F2011092F1010E94241B1F8299E099836D
:1045B000FA8291E09E8390EA98879AEF99872091FA
:1045C000F3013091F401275F3F4F3C832B838D83B0
:1045D0001092E9001092F4011092F3011093F2018D
:1045E0000093F10149E050E0BE016F5F7F4F80E032
:1045F0000E94FE1A0E94241B79CF1093F2010093AF
:10460000F1010E943B1ADC0112960D911C910115DB
:10461000110509F451C1D801ED91FC910480F58197
:10462000E02DBE016B5E7F4FC8010995009709F030
:104630003EC1F80100851185EACFF3E0FF120EC0FC
:104640008F89882309F440C0823061F440E867E034
:104650008EE793E30E940D25811148CF81E280937C
:10466000EB0047CF813029F440E86BE082E793E329
:10467000F1CF833099F70E943B1ADC011296ED903E
:10468000FC908E010F5F1F4F6801E114F10479F077
:10469000D701ED91FC910680F781E02DB801C701AB
:1046A0000995080F111DF701E084F184EECFD801C0
:1046B0001C92F60101900020E9F73197BF016C19B7
:1046C0007D0940E0C601C6CF6CE573E3FB01449170
:1046D00050E080E80E94FE1A09CF973009F4BECF5F
:1046E000983021F481E08093F10000CF993009F0F7
:1046F000FDCE837009F0B2CFE1E2F1E081E031E07C
:1047000096E32191222371F08093E9003093EB002E
:10471000DF0111972C912093EC009093ED008F5FB7
:10472000873079F78EE78093EA001092EA008F894C
:1047300080930602DBCE8B8D9C8D1092E900109247
:10474000F4011092F3019093F2018093F101898DAD
:10475000811192C08E899D89913A49F4813209F084
:104760007DCF47E050E06BE071E080E0B3CF913265
:1047700009F074CF833269F48F89988DB0E0A0E09E
:104780008093070190930801A0930901B0930A0157
:10479000ADCE803269F48091E80082FFFCCF67E003
:1047A0008BE091E00E94551B8BEF8093E8009ECE3A
:1047B000823209F09BCE8F8980931201EEEFFFE7E2
:1047C000859194918B3F9C4D51F1E0E0F8E0809110
:1047D0000B0190910C01A0910D01B0910E01803B55
:1047E0009440A105B105F1F48091120180FD1AC039
:1047F000EE3F8AE0F80789F587E797E791838083A2
:10480000809160008093F50188E19BE00FB6F894F9
:10481000A895809360000FBE9093600067CEEEEF86
:10482000FAE0D5CF808191818737974709F05ECE36
:10483000A895809160008861809360008091F50167
:1048400080936000EE3F2AE0F20789F08091FE0A33
:104850009091FF0A9183808349CE8081918187372F
:10486000980751F29093FF0A8093FE0AC5CF1092E9
:10487000FF0A1092FE0A3ACE0E943B1ADC01129601
:104880000D911C910115110509F4E8CED801ED91A7
:10489000FC910190F081E02DBE016B5E7F4FC8015D
:1048A0000995811123CEF80100851185EBCF1816EB
:1048B00019060CF41BCED2CEF1E0FF12BECE60E69C
:1048C00073E304CF1F920F920FB60F9211242F9310
:1048D0003F938F939F93AF93BF938091E901909102
:1048E000EA01A091EB01B091EC013091E80123E0E5
:1048F000230F2D3758F50196A11DB11D2093E80116
:104900008093E9019093EA01A093EB01B093EC014D
:104910008091ED019091EE01A091EF01B091F00135
:104920000196A11DB11D8093ED019093EE01A0931E
:10493000EF01B093F001BF91AF919F918F913F91A3
:104940002F910F900FBE0F901F90189526E8230F00
:104950000296A11DB11DD2CF1F920F920FB60F92DA
:1049600011242F933F934F935F936F937F938F9374
:104970009F93AF93BF93EF93FF93809150019091DA
:104980005101A0915201B0915301892B8A2B8B2B9D
:1049900009F440C080914F0181110BC088B190E4AF
:1049A000892788B980914E01882319F088B18058F1
:1049B00088B98091500190915101A0915201B0911C
:1049C0005301181619061A061B069CF48091500113
:1049D00090915101A0915201B09153010197A10909
:1049E000B1098093500190935101A0935201B0936B
:1049F0005301FF91EF91BF91AF919F918F917F9163
:104A00006F915F914F913F912F910F900FBE0F903B
:104A10001F9018950E94981CECCFEF92FF920F9375
:104A20001F93CF93DF93F82E192FE62E042F81E0EA
:104A3000860F880F0E94D01A83E00E94D01ACF2DD3
:104A4000D12FEC0EFD2EF11CCE15DF05B9F007FFBE
:104A500013C0FE0184910E94D01A182F80E00E949A
:104A6000D01A812321968111EFCFDF91CF911F9131
:104A70000F91FF90EF9008958881EDCF81E0F5CF01
:104A8000E7E0F6E01382128288EE93E0A0E0B0E067
:104A900084839583A683B7838BE291E0918380839F
:104AA0008FEF9FEF95878487E7E6F6E01382128207
:104AB0008DE391E0918380838EEE99E19093660679
:104AC0008093650680E090E8909364068093630687
:104AD00046983E9A47983F9A0895CF93DF9300D027
:104AE00000D000D0CDB7DEB7789484B5826084BDA5
:104AF00084B5816084BD85B5826085BD85B58160E2
:104B000085BD80916E00816080936E00109281005F
:104B1000809181008260809381008091810081601A
:104B200080938100809180008160809380008091DB
:104B300091008260809391008091910081608093C8
:104B40009100809190008160809390008091C100DD
:104B500084608093C1008091C10082608093C10015
:104B60008091C10081608093C1008091C300816009
:104B70008093C3008091C00082608093C0008091C8
:104B8000C20081608093C20080917A00846080932B
:104B90007A0080917A00826080937A0080917A0016
:104BA000816080937A0080917A00806880937A0097
:104BB000109206021092F6011092F8018091D7002F
:104BC00081608093D70080EA8093D80089B58061A6
:104BD00089BD89B5826089BD09B400FEFDCF61E061
:104BE00070E080E090E00E94871B8091D8008F7C6D
:104BF00080618093D8008091E000807F8093E00006
:104C00008091E1008E7E8093E1008DE08093E20050
:104C1000559A209A81EC80937C0085B1806F85B98C
:104C200084B1877E84B984B1876E84B95E9A5F98B7
:104C30008AB1806D8AB9769A6E9881B3806F81BB94
:104C4000899880B38D7080BB80E58CBD81E08DBD7F
:104C500085E090E00E94671F5F9A85E090E00E94E7
:104C6000671F5E985C98EDE8F4E28AE994E224918B
:104C70002EBD00000DB407FEFDCF31968E179F07A5
:104C8000B1F75C9A81E8809364008091650081604F
:104C9000809365000E949A1F0E946C1F02E010E042
:104CA00087FF15C05C9885EA8EBD00000DB407FE35
:104CB000FDCF5C9A2E982F982D9880916400806289
:104CC0008093640081E083BF889513BEFCCF0E946F
:104CD0006C1F82FF40C02D980E946C1F847884381E
:104CE000C1F40E94651F88EC90E00E94671F2F9816
:104CF0001A8309836FEFCE0101960E94A82184EFE9
:104D000091E00E94671F2F9A0E946C1F847884385C
:104D1000D9F30E946C1F84718431C1F40E94651F15
:104D200088EC90E00E94671F2E981A83098360E048
:104D3000CE0101960E94A82184EF91E00E94671F96
:104D40002E9A0E946C1F84718431D9F388EC90E014
:104D50000E94671FBCCF0E94651F82E090E00E9406
:104D6000A621882309F484C00E94741F81E090E08A
:104D70000E94A621282F2470722E81FF11C02111BC
:104D80002E9801EF1FEFA8E0EA2EF12CB8E56B2E6C
:104D90000E946C1F86FF71C02E9A2F9A0E94651F79
:104DA00082E390E00E94671F0E946C1F8111F8CF80
:104DB0000E94621B611571058105910511F00E9429
:104DC0008C2F0E947A1F81E2809300010E94741F41
:104DD0001092E7011092E601109289011092880169
:104DE00084E090E09093D8018093D7011092E00185
:104DF0001092DF011092DE010E94C22090E080E05C
:104E00000E94A621873A09F4FBC01092DC0181E0E0
:104E100090E09A83898360E0CE0101960E94A821E8
:104E20001A82198267EACE0101960E94A82186EEB5
:104E300095E20E943D1D0E943F1C6093E10170932A
:104E4000E2018093E3019093E40164E0262E312C8B
:104E50000E943F1C80915501882309F4D8C010920C
:104E6000550180E090E0892B99F30E940000EDCF7E
:104E7000109254013E983F9879CF772029F0043062
:104E8000110511F42E9A2F9881E00E94F1199801D2
:104E900017FF04C022273327201B310B277033272D
:104EA000C80117FD0796F3E095958795FA95E1F708
:104EB00017FF05C00197A701421B530B9A01BC01C4
:104EC0007695762F662777956795695F7D4FB0E079
:104ED000A0E02701421A530A8E3F5FEF950709F4BD
:104EE0003FC06A9E50016B9EB00C112450E040E020
:104EF000F501E352FC4D5F014B01F0E88F0E911C70
:104F00008F3F980791F0F501E40FF51FE4916B01D5
:104F1000C40ED51EF0E01F01022E01C0220C0A941F
:104F2000EAF7F60134882328248A2115310599F0FF
:104F3000F501E40FF51FE4916401C40ED51EF0E005
:104F40001F01042C02C0359427940A94E2F7F6015D
:104F500034882328248A4F5F5F4F4835510581F6F6
:104F6000019660587F4F119709F047C00E949A1F21
:104F70008FE090E00E94671F0F5F1F4F09311105FE
:104F800009F006CF772011F02F9A2D9880E991E053
:104F90000E94671F0E94651F81E090E00E94A62189
:104FA00080FFFECE8AE090E00E94A6219FEF980F3E
:104FB0009E3F08F0F5CE22E330E030938701209346
:104FC000860128E330E030938501209384010BE0D3
:104FD00010E0682F87E696E00E94F91FC8010E9442
:104FE000A6210F5F1F4F0131110599F70E949A1FEB
:104FF00088EE93E00E94671FD3CEA1E0B0E06CCFB3
:1050000081E090E00E94A6218093DC0110CF809186
:105010005601F62FF81B8F2F90910001F91748F4D5
:105020008F5F891708F01DCF81E083BF889513BE7D
:1050300018CF81E0809355016093560180915F0104
:105040009091600101969093600180935F010E94AE
:105050007A1F80918C0180938B010E946C1F80933A
:105060008C0180918A01882379F08091D7019091F9
:10507000D8018230910510F0039731F482E696E270
:105080000E943D1D10928A0180918A01882361F05F
:105090008091D7019091D801029731F488E596E28A
:1050A0000E943D1D10928A018091E6019091E701D6
:1050B000209188013091890182179307D9F02D7FC3
:1050C000232B19F481309105A9F08530910509F45D
:1050D00062C008F04FC08130910509F454C00397B5
:1050E00009F456C08091E6019091E70190938901FF
:1050F000809388018091E6019091E701009709F083
:105100005DC00E943F1C6B017C011091E501E12F05
:10511000F0E0EE0FFF1FE05FFC4C4591549170E012
:1051200060E090E080E00E944F1F8091E10190914B
:10513000E201A091E301B091E401C81AD90AEA0A98
:10514000FB0A28EEC21623E0D206E104F10498F12E
:105150001F5F1093E501153020F11092E5011092C8
:10516000E0011092DF011092DE011092DD010E9439
:105170003A2188C08630910589F0079709F0B2CFAF
:1051800084E795E202C086EE95E20E943D1DAACF1B
:105190000E948C1CA7CF80EC95E2F7CF8EE995E2B8
:1051A000F4CF0E943F1C6093E1017093E201809371
:1051B000E3019093E4010E949A1F53CE8130910540
:1051C00009F03FC04EE05FE270E060E090E080E018
:1051D0000E944F1F8CE290E090938701809386019C
:1051E00084E390E0909385018093840189E09FE2BD
:1051F0000E945C208091DC010E94EF2088E00E94E8
:105200008F1F882381F01092E0011092DF0110922D
:10521000DE011092DD010E943A2183E090E090933C
:10522000E7018093E60184E00E948F1F882319F232
:105230001092DB0142E050E05093E7014093E60119
:10524000BACF8230910509F51091DB01E12FF0E032
:10525000EE0FFF1FEB5FF04D4591549170E060E061
:1052600090E080E00E944F1F84E00E948F1F8823FF
:1052700009F4A1CF1F5F123018F41093DB019BCF0C
:105280001092DB0181E090E0A2C08430910549F5E5
:1052900082E390E090938701809386018AE090E01A
:1052A00090938501809384018FEF9EE20E945C20A1
:1052B0008FE090E090938701809386018EE190E0EB
:1052C00090938501809384018DEE9EE20E945C2084
:1052D00088E00E948F1F882309F46DCF83E090E05F
:1052E00076C08530910509F07CC00E943F1C6B019F
:1052F0007C010AE010E0109387010093860110936F
:105300008501009384018EED9EE20E945C20109343
:105310008701009386018EE190E090938501809350
:10532000840188ED9EE20E945C208091DF010E9452
:10533000EF206FE287E696E00E94F91FE091E0011E
:10534000F0E0E35EFE4F80810E94EF201093870122
:10535000009386018DE290E0909385018093840113
:1053600082ED9EE20E945C208091DE010E94EF208F
:10537000109387010093860187E390E09093850165
:105380008093840187EC9EE20E945C208091DD0185
:105390000E94EF208091E1019091E201A091E30150
:1053A000B091E401C81AD90AEA0AFB0A98EBC916B7
:1053B0009BE0D906E104F10408F4FDCE8091E00100
:1053C0008F5F8093E001833038F087E090E0909326
:1053D000E7018093E601EFCE1092DF010E943A21AF
:1053E0007DCF8730910579F445EC5AE270E060E0BA
:1053F00090E080E00E944F1F88E00E948F1F88236A
:1054000009F4D9CEACCE8630910501F543EC56E2D5
:1054100070E060E090E080E00E944F1F88E00E9412
:105420008F1F882361F08091DA018093DD010E9453
:105430003A2183E090E09093E7018093E60184E0D5
:105440000E948F1F882309F4B6CE1CCF039709F062
:10545000B2CE0E943F1C0091D90110E0000F111F35
:105460000354194DB0900601EB2CF12CEE0CFF1CEF
:10547000D701A354B94D7D014090E1015090E20164
:105480006090E3017090E401641975098609970939
:10549000683E73408105910508F03CC00E94CF2012
:1054A00068E070E088E090E00E94BB1F60E170E07F
:1054B00080E190E00E94BB1FF80145915491F701F3
:1054C0000591149169E070E090E080E00E94391F3E
:1054D000A80169E070E080E890E00E94391F6091C7
:1054E000050170E0809104014BE756E290E00E94D4
:1054F000391F88E390E090938701809386018CE1C7
:1055000090E0909385018093840187E796E20E9462
:105510005C2051CEC0908201D0908301C60160E82A
:1055200070E00E942B304C01F80145915491F70135
:105530000591149169E070E08827992788199909E5
:105540000E94391FA80169E070E080E890E08819A6
:1055500099090E94391F80910301C80ED11C87FD53
:10556000DA94D0928301C0928201E894C7F8DD24D6
:10557000CD2861F4B092D9010E943D2F23E030E0A4
:1055800040E050E00E94B42F60930601E091E001FA
:10559000F0E0EE0FFF1FE259FA4DC590D49014E1F0
:1055A000B12E0CE1A02E82E1982E9EE1892E8091F1
:1055B000D3019091D401E091E001F0E0E65EFE4F6E
:1055C00020812817190609F008F441C0BC01660FB4
:1055D000771F680F791F6C0D7D1D43E050E0CE01F1
:1055E00001960E94952F89818B9DC0011124009105
:1055F000820110918301081719074CF1081B190B40
:105600000E571F4FEA81E73010F5F0E0E65FF44DEA
:105610000C943F30112B1A2BA02CB82CBC2CD22C64
:10562000E92CA80161E08B810E947720892B09F089
:105630007DC10DC0E2E6F1E090E080E0238122230D
:1056400009F468C10196349688309105B9F7209124
:105650000301022E000C330B7DE8472E71E0572E1C
:105660008201F801808191818C3EFFEF9F072CF031
:10567000821B930BD8018D939C93095F1F4FE3ED21
:10568000F1E0E017F10769F70E94CF2022E030E057
:105690003093870120938601109285011092840136
:1056A00080E796E20E945C208091DE010E94EF205C
:1056B00042E550E0509387014093860110928501A6
:1056C000109284018091DF010E94EF206FE287E653
:1056D00096E00E94F91FE091E001F0E0E35EFE4FEA
:1056E00080810E94EF2068E070E088E090E00E94F6
:1056F000BB1F60E170E080E190E00E94BB1F209141
:10570000020130E062E6C62E61E0D62E5601D501D8
:1057100013968C911397882361F08D919C9111972A
:10572000821B930B8D939C93883F9F4F14F4F5013C
:105730001382F4E0AF0EB11C42E8A41641E0B406B7
:1057400031F752E6E52E51E0F52ED70113968C91F4
:105750001397882351F080916101813009F457C17A
:1057600008F44BC1823009F45FC1F4E0EF0EF11C84
:10577000AE14BF0451F7A0905F01B0906001C50165
:1057800087709927892B41F4809161018F5F833065
:1057900009F452C1809361014DE8642E41E0742EFA
:1057A000D3018D919C9111979C01205F3F4F2D3922
:1057B000310578F41396EC91EE0FFF0BE05CFA4D97
:1057C00045915491F3016481062E000C770B0E94E1
:1057D000391FF7E06F0E711C0615170509F7C50193
:1057E0006FE070E00E941730892B31F48091010145
:1057F00091E089278093010180E20E948F1F882316
:1058000021F03092E7012092E60184E00E948F1F90
:10581000882331F081E090E09093E7018093E601E6
:105820008091D7019091D801049709F041C08091EF
:10583000D601811159C08091D501811112C080E833
:105840000E948F1F882369F081E08093D5010E9418
:105850003F1C60935B0170935C0180935D019093AA
:105860005E018091D501882309F491C20E946C1FCA
:1058700083FF71C21092D50181E090E09093D8012E
:105880008093D7018CE0809305010E943F1C6093B8
:105890005701709358018093590190935A0181E008
:1058A00080938A018091D7019091D8010497E1F00B
:1058B0000E943F1C009157011091580120915901FD
:1058C00030915A01601B710B820B930B6C34744046
:1058D0008105910548F03092D8012092D7011092AD
:1058E000D6018EE1809305014091D6014C83A090B2
:1058F000D701B090D8010091040110E0442309F4CD
:10590000BDC06091050170E04EEF54E2C8010E94F5
:10591000391FC5C0880F991F880F991FFC01EE59C8
:10592000FE4F11830083828281E083838091D301C3
:105930009091D40101969093D4018093D30137CEF6
:10594000E2E6F1E090E080E02381222331F001964D
:10595000349688309105C1F77ACE880F991F880F49
:10596000991FFC01EE59FE4F118300839282DCCF18
:10597000A80160E082E058CEA80160E082E00E94C9
:1059800077207C01892B09F462CEA80162E08B812B
:105990000E947720892B51F688ED9FEFF7019183C4
:1059A000808355CEA80160E084E00E9477207C01CE
:1059B000892B09F44CCEA80161E085E00E94772094
:1059C000892B09F0B3CF88ED9FEFD7018D939C937E
:1059D0003ECEA80160E086E00E9477207C01892B02
:1059E00009F435CEA80161E086E00E947720009797
:1059F00099F2DC011496AC9299CFF7016281062EE0
:105A0000000C770B44E655E2808191810AC0129622
:105A10006C911297062E000C770B4AE555E28D919A
:105A20009C910E944F1FA1CEF7016281062E000CAF
:105A3000770B40E555E2E8CF10926101ADCE80E4EE
:105A40000E948F1F882309F44FCF22E030E030936B
:105A5000D8012093D70111E01093D6018EE18093F5
:105A600005010E943F1C6093570170935801809379
:105A7000590190935A0110938A0114CF51E0A51651
:105A8000B10409F428C108F420C183E0A816B104C8
:105A900009F421C194E0A916B10409F422C188E0F7
:105AA0000E948F1F8823D9F1A801415F5F4F809129
:105AB000050190E0BC01615F7F4F8090DF01B091F4
:105AC000DE01A091DD01F60123812223E1F0208196
:105AD0003181F9013796E017F107ACF0421753070F
